:06000000020D9E02006BE0
:03000B0002006B85
:0300130002006B7D
:03001B0002006B75
:0300230002006B6D
:03002B0002006B65
:0300330002006B5D
:03003B0002006B55
:0300430002006B4D
:03004B0002006B45
:0300530002006B3D
:03005B0002006B35
:0300630002006B2D
:01006B003262
:0900800002006B0002006B00029B
:08008900006B0002006B000295
:08009100006B0002006B00028D
:08009900006B0002006B000285
:0800A100006B0002006B00027D
:0800A900006B0002006B000275
:0700B100006B0002006B0070
:0901000002006B0002006B00021A
:08010900006B0002006B000214
:08011100006B0002006B00020C
:08011900006B0002006B000204
:08012100006B0002006B0002FC
:08012900006B0002006B0002F4
:08013100006B0002006B0002EC
:08013900006B0002006B0002E4
:08014100006B0002006B0002DC
:08014900006B0002006B0002D4
:08015100006B0002006B0002CC
:08015900006B0002006B0002C4
:08016100006B0002006B0002BC
:08016900006B0002006B0002B4
:08017100006B0002006B0002AC
:07017900006B0002006B00A7
:030DAA00020DB285
:060D9E0075080075090054
:030DC500020DAD6F
:050DAD001202CD80FEE2
:0501800090E68BE4F0A5
:0901850090E6A0E0FA20E1F82266
:0A018E0090E6B8E0FABAC002800360
:0301980002021C44
:0A019B0090E6B9E0FABA810280058F
:0501A500BA8270802EFB
:0A01AA0090E6BAE0FA751C40751DDE
:0C01B400E790E6BEE0F51E8A8212066AA3
:0701C000E5827003F58222C5
:0E01C70090E68AE4F090E6BEE0FA90E68BF057
:0301D5000202C162
:0C01D80090E6BBE0FA90E6BAE0F50E906D
:0A01E400E6BDE0F50F90E6BCE0F583
:0501EE001075114075C1
:0A01F30012E790E6BEE0F5138A82E1
:0A01FD001204A1E5827003F58222CE
:0E02070090E68AE4F090E6BEE0FA90E68BF016
:030215000202C121
:0402180075820022C9
:0A021C0090E6B8E0FABA4002800351
:030226000202BD14
:0A02290090E6B9E0FABA080280344A
:05023300BA0902804F32
:05023800BA0C02800376
:03023D000202B901
:0E02400075B20B75800812018090E740E0FA5D
:0B024E0090E741E0F51C90E742E0F56E
:0A0259001D90E743E0F51E8A8212B3
:0402630005B3805A05
:0C02670012018090E6BAE0FA751C4075A8
:0A0273001DE790E68BE0F51E8A827D
:0A027D0012072AE582703DF5822287
:0D02870012018090E6BBE0FA90E6BAE0F5C7
:0A0294001490E6BDE0F51590E6BCFD
:07029E00E0F516751740752D
:0A02A50018E790E68BE0F5198A8255
:0A02AF0012050FE582700BF58222A4
:0402B9007582002228
:0402BD007582002224
:0402C100758201221F
:0802C5003000FD12090680F86B
:0902CD001202E2C2AF120CD112C0
:0A02D6000870C2EAD2AF1206460219
:0202E00002C555
:0E02E20090E6007410F0758E0090E60174FB3B
:0E02F000F0007580EF75B20B90E61074A0F070
:0E02FE000090E61174E0F00090E61274A0F09B
:0E030C000090E613E4F00090E61474E0F000B8
:0E031A0090E615E4F00090E6047480F0009088
:0E032800E6047402F00090E6047406F0009003
:0D033600E604E4F00090E6187401F0009079
:0E034300E6187411F00090E61A7409F00090AC
:0E035100E68AE4F00090E68DE4F00090E624E9
:0B035F007402F00090E625E4F000229C
:04036A007A507BC387
:06036E00001ABAFF011B9A
:05037400EA4B70F622C7
:0E03790090E6007412F012036A75B20B7580E4
:0803870008751C95751D5A75DF
:09038F001E307582A21205B3753F
:060398001C50751D0875E4
:09039E001E817582051205B3757C
:0603A7001CFF751D1D7511
:0903AD001EC27582FE1205B37533
:0603B6001CC0751D00755E
:0903BC001E8375829E1205B375C3
:0603C5001C48751D0875BF
:0903CB001E0475820C1205B375C5
:0603D4001C00751D0775F9
:0903DA001E057582801205B37541
:0603E3001C00751D0075F1
:0903E9001E067582801205B37531
:0603F2001C06751D1B75C1
:0903F8001E677582101205B37531
:060401001C0F751D407583
:090407001E1875821E1205B37562
:060410001CC0751D4075C3
:080416001E297582140205B3D2
:09041E00AA82901800E50AF075AD
:030427001C007541
:03042A001D187525
:0C042D001E018A82C00212072AE582D05C
:06043900027003F58222AF
:04043F00850B1C8588
:030443000C1D8508
:050446000D1E8A820278
:02044B00066A3F
:0CE0000012010002FFFFFF40FEFF0200C3
:06E00C0000010102060103
:0AE012000A060002FFFFFF400100B4
:0EE01C000902320003010080C8090400000060
:0EE02A00FFFFFF030904010001FFFFFF0407D1
:0EE038000502020002000904020001FFFFFFC2
:08E04600050705860200020037
:0CE04E0012010002FFFFFF40FEFF020075
:06E05A00000101020001BB
:0AE060000A060002FFFFFF40010066
:0EE06A000902120001010080C8090400000034
:04E07800FFFFFF03A4
:01E07C00079C
:02E07D008CE035
:02E07F0092E02D
:02E08100ACE011
:02E08300D0E0EB
:02E08500F2E0C7
:02E087000EE1A8
:02E0890028E18C
:06E08C0006030000090478
:0EE092001A0367006E00730073002D00730008
:0CE0A000640072002E0063006F006D0031
:0EE0AC00240347005000530020006400610070
:0EE0BA00740061002000730061006D007000B2
:06E0C8006C00650072000F
:02E0CE002E0022
:0EE0D000220343006F006D006D0061006E00C2
:0EE0DE00640020002600200053007400610042
:06E0EC00740075007300D2
:0EE0F2001C035400720061006E0073006D008C
:0EE10000690074002000500061007400680087
:0EE10E001A0352006500630065006900760088
:0CE11C00650020005000610074006800E5
:02E128000803EA
:06E12A0030002E00310060
:08044D007801E84400600C791D
:0C04550001901800E4F0A3D8FCD9FAD004
:0E04610083D082F6D8FDC082C083758200224F
:01046F00226A
:010470002269
:0A047100AA827B00EA30E0027B0162
:05047B00EA30E1010B75
:05048000EA30E2010B6F
:05048500EA30E3010B69
:05048A00EA30E4010B63
:05048F00EA30E5010B5D
:05049400EA30E6010B57
:05049900EA30E7010B51
:03049E008B82222C
:0C04A100AA82850F82C002120471AB8297
:0B04AD00D002EB24FE500475820022F8
:0B04B800850F82C00212046FD002E525
:0804C3001030E70475820022ED
:0C04CB0074605510FB6023BB200280050C
:0504D700BB4017800886
:0804DC00850E821205688011F3
:0904E4008A82120568850E82125D
:0404ED00056880041A
:0404F10075820022EE
:0604F500E513600C851305
:0504FB001B8511828544
:050500001283120594B6
:0A05050075820012046F7582012256
:0C050F00AA82851582C00212046FD0027F
:09051B00E51630E70475820022A8
:0C05240074605516FB6023BB20028005AC
:05053000BB401780082C
:08053500851482120568801193
:09053D008A8212056885148212FD
:0405460005688004C0
:04054A007582002294
:06054E00E519600C85199F
:050554001A85178285E5
:05055900188312056982
:0A055E0075820012046F75820122FD
:010568002270
:06056900AA82AB83AC1A6C
:0E056F008C051CED601E8A828B83E0FDA3AA22
:0E057D0082AB838D82C002C003C004120568E9
:08058B00D004D003D00280DC93
:010593002245
:06059400AA82AB83AC1B40
:0E059A008C051CED6012120594AD828A828BD6
:0A05A80083EDF0A3AA82AB8380E884
:0105B2002226
:0705B300AA825380F77B08C8
:0A05BA005380FCEA30E7034380029F
:0D05C400EA2AFA438001DBEE5380FE7A083C
:0B05D1005380FCE51C30E70343800270
:0505DC00E51C251CF5E3
:0B05E1001C438001DAEA5380FE7A0818
:0B05EC005380FCE51D30E70343800254
:0505F700E51D251DF5C6
:0B05FC001D438001DAEA5380FE7A08FC
:0B0607005380FCE51E30E70343800237
:05061200E51E251EF5A8
:0C0617001E438001DAEA5380FE75800863
:0106230022B4
:0806240090E6A0E04401F02281
:0E062C00AA8274805AC423541FFB740F5A9084
:0C063A00E6834BF090E683E04420F022C1
:0E06460090E680E0440AF09000FA120D8D90CC
:0E065400E65D74FFF090E65F74FFF05391EFE7
:0806620090E680E054F7F0225D
:060DBF00E478FFF6D8FD08
:0A066A00AA82E51E700475820122C9
:0E06740090E678E0FB20E6F890E6787480F0DF
:0A068200EA2AFA90E67974014AF0C2
:0E068C0090E678E0FA30E0F890E678E0FA3098
:05069A00E20302071F4E
:0B069F0090E678E0FA20E10302071F5C
:0C06AA007401B51E0890E678E0FA4420C8
:0106B600F053
:0906B70090E679E0F51FAA1CABE6
:0306C0001DAC1E50
:0406C3001CEC60309B
:0E06C70090E678E0FD30E0F890E678E0FD2067
:0D06D500E248BC010890E678E0FD4420F00A
:0E06E20090E679E0FD8A828B83F0A3AA82ABBA
:0706F000838A1C8B1D80CCE6
:0E06F70090E678E0FA30E0F890E678E0FA203D
:0C070500E21890E678E04440F0AA1CAB3B
:0C0711001D90E679E08A828B83F07582EF
:02071D000122B7
:0B071F0090E678E04440F07582002274
:02072A00AA82A1
:0E072C0090E678E0FB20E6F890E6787480F026
:07073A00EA2AFA90E679F0CB
:0E07410090E678E0FA30E0F890E678E0FA20F2
:0C074F00E24790E678E0FA30E13FAA1C97
:04075B00AB1DAC1E08
:0E075F00EC602B8A828B83E0FDA3AA82AB8321
:06076D0090E679EDF01C9E
:0E07730090E678E0FD30E0F890E678E0FD20BA
:0C078100E21590E678E0FD20E1D4800B4A
:0B078D0090E678E04440F07582012205
:0B07980090E678E04440F075820022FB
:060DA40075220175230019
:0A07A30090E680E0FA30E7197524B3
:0307AD00007525AF
:0307B000E07526CB
:0307B30012752795
:0307B600E07528C3
:0307B9001C752983
:0307BC00E0752ABB
:0307BF006A752B2D
:0207C200E02233
:0407C40075244E75D5
:0307C80025E075B4
:0307CB0026607530
:0307CE0027E075AC
:0307D100286A751E
:0307D40029E075A4
:0307D7002A1C7564
:0307DA002BE022EF
:0907DD005391EF75A100D2003226
:0C07E600C021C0E0C0F0C082C083C0028F
:0E07F200C003C004C005C006C007C000C0019F
:0E080000C0D075D0005391EF75A1001207A370
:0E080E00D0D0D001D000D007D006D005D00445
:0D081C00D003D002D083D082D0F0D0E0D045
:0208290021327A
:0C082B00C021C0E0C0F0C082C083C00249
:0E083700C003C004C005C006C007C000C00159
:0E084500C0D075D0005391EF75A1001207A32B
:0E085300D0D0D001D000D007D006D005D00400
:0D086100D003D002D083D082D0F0D0E0D000
:02086E00213235
:050870001207A3751C36
:03087500DD751D11
:0808780007758200120C2F75B8
:030880001CE675FE
:060883001D077582101232
:040889000C2F751C9F
:03088D002B751DAB
:0C08900008758214120C2F90E65C743185
:02089C00F02248
:0D089E00E582547FFA24F750047582002291
:0708AB00BA0104758201226D
:0808B200530201E4BA00010445
:0308BA00F58222A2
:0E08BD00AA82BA010C90E6A1E0FB7C008B82BF
:0308CB008C8322F9
:0E08CE00BA810C90E6A2E0FB7C008B828C834A
:0108DC0022F9
:0E08DD0053027FEA700C90E6A0E0FB7C008BDB
:0408EB00828C832256
:0E08EF0090E6A3E0FB7C00EAC313FA7D00EA6A
:0908FD002BFBED3C8B82F58322FC
:0C090600C20090E6B8E0FA530260BA00AC
:0309120002802838
:05091500BA2002800D74
:05091A00BA4002800E4E
:05091F00BA6002800334
:03092400020BC4FF
:06092700120624020BC4BD
:0A092D0012018EE5826003020BC484
:06093700120624020BC4AD
:0D093D0090E6B8E0FA530280BA8002800311
:03094A00020AC5D9
:0B094D0090E6B9E0FABA0003020A3E8F
:05095800BA0602803523
:05095D00BA0802800849
:05096200BA0A02801733
:03096700020ABFC2
:0C096A0090E740E522F090E68AE4F0906F
:08097600E68B7401F0020BC4D2
:0C097E0090E740E523F090E68AE4F0905A
:08098A00E68B7401F0020BC4BE
:0A09920090E6BBE0FABA01028017FC
:05099C00BA02028038E0
:0509A100BA03028059B9
:0509A600BA0602801BEF
:0509AB00BA0702803CC8
:0309B000020A3800
:0A09B300AA24AB2590E6B3EBF07B1D
:0909BD000090E6B4EAF0020BC45C
:0A09C600AA26AB2790E6B3EBF07B06
:0909D0000090E6B4EAF0020BC449
:0A09D900AA28AB2990E6B3EBF07BEF
:0909E3000090E6B4EAF0020BC436
:0A09EC00AA2AAB2B90E6B3EBF07BD8
:0909F6000090E6B4EAF0020BC423
:0E09FF0090E6BAE0FA90E07CE0FBC3EA9B4091
:070A0D0006120624020BC4CF
:0C0A140090E6BAE075F002A4247DF582A3
:0B0A200074E035F0F583E0FAA3E090ED
:0D0A2B00E6B3F07B0090E6B4EAF0020BC4E5
:060A3800120624020BC4AB
:0D0A3E0090E6B8E0FA53021FBA0002800AE9
:050A4B00BA0102801B4E
:050A5000BA0266802CD3
:0E0A550090E740E4F090E741F090E68AF090E0
:080A6300E68B7402F0020BC4E3
:0E0A6B0090E740E4F090E741F090E68AF090CA
:080A7900E68B7402F0020BC4CD
:0E0A810090E6BCE0F58212089EE582602590AA
:0E0A8F00E6BCE0F5821208BDE0FA53020190C9
:0E0A9D00E740EAF090E741E4F090E68AF0903E
:080AAB00E68B7402F0020BC49B
:060AB300120624020BC430
:060AB900120624020BC42A
:060ABF00120624020BC424
:0C0AC50090E6B9E0FA24F45003020BC1E3
:070AD100EA2A2A900AD873FB
:070AD800020BC1020B0E022C
:060ADF000B89020B6A0204
:060AE5000BC1020BC1026F
:060AEB000BC1020BC10269
:060AF1000BC1020AFC0229
:050AF7000BC1020B051C
:090AFC0090E6BAE0F522020BC4F9
:090B050090E6BAE0F523020BC4EE
:0D0B0E0090E6B8E0FA53021FBA000280051D
:050B1B00BA0247800A48
:0A0B200090E6BAE0120624020BC4AE
:0D0B2A0090E6BAE0703090E6BCE0F5821273
:0D0B3700089EE582602390E6BCE0F5821286
:0E0B440008BDAA82AB83E0FC5304FE8A828BBC
:0E0B520083ECF090E6BCE0F58212062C806485
:050B6000120624805F75
:050B6500120624805A75
:0E0B6A0090E6B8E0FA53021FBA004F90E6BAC8
:070B7800E0FABA010280055A
:050B7F00BA02028040F3
:050B8400120624803B75
:0E0B890090E6BAE0FA702C90E6BCE0F582121D
:0D0B9700089EE582601A90E6BCE0F582122F
:0E0BA40008BDAA82AB83E0FC4304018A828B69
:050BB20083ECF0800D52
:050BB700120624800875
:050BBC00120624800375
:030BC100120624F5
:080BC40090E6A0E04480F0225D
:050BCC00AA82BA03003B
:070BD1004005EA249C5001DD
:010BD80022FA
:090BD900740F5AFBBB03028007F4
:070BE200740F5AFBBB0B4529
:0A0BE900A2AF9201C2AFEA2400F5AA
:0C0BF30082E43400F5837402F07B00748F
:0C0BFF00012AFCE43BFDEC2400F582ED33
:0A0C0B003400F583E51DFCF07402CF
:0C0C15002AFAE43BFBEA2400F582EB34F1
:0A0C210000F583AA1C7B00EAF0A294
:030C2B000192AF84
:010C2E0022A3
:080C2F00E582FA248350012242
:060C3700EA5403600122F3
:0A0C3D00A2AF9202C2AFEA2400F554
:0C0C470082E43401F5837402F07B007439
:0C0C5300012AFCE43BFDEC2400F582EDDE
:0A0C5F003401F583E51DF074022A4C
:0B0C6900FAE43BFBEA2400F582EB34C8
:080C740001F583AA1CEAF0A2BD
:040C7C000292AF220F
:080C8000E582FA24CB500122A9
:060C8800EA5403600122A2
:0A0C8E00A2AF9203C2AFEA2480F582
:0C0C980082E43400F5837402F07B0074E9
:0C0CA400012AFCE43BFDEC2480F582ED0D
:0A0CB0003400F583E51DF074022AFC
:0B0CBA00FAE43BFBEA2480F582EB34F7
:080CC50000F583AA1CEAF0A26D
:040CCD000392AF22BD
:080CD100C2E8C2EA751C0075BF
:060CD9001D0175824312AB
:040CDF000BCC751CA9
:030CE30080751DFC
:0C0CE60000758253120BCC0090E650E425
:0E0CF200F00090E652E4F00090E654E4F000CA
:0E0D000090E656E4F00090E65174FFF000908B
:0E0D0E00E65374FFF00090E65574FFF000907D
:0E0D1C00E65774FFF00090E658E4F090E659B8
:0E0D2A0074FFF090E65AE4F090E65B74FFF080
:0E0D380090E65CE4F090E65D74FFF090E65EFD
:0E0D4600E4F090E65F74FFF00090E660E4F0E9
:0D0D54000090E66174FFF090E662E4F0901C
:0E0D6100E66374FFF090E665E4F090E66874D7
:0A0D6F000BF05391AFD2E8C2EA2264
:010D79002257
:020D7A00AA824B
:060D7C00120D79DAFB22E2
:030D820090FB5093
:080D8500A3E582458370F92209
:040D8D00AA82AB8308
:080D9100120D821ABAFF011BCA
:050D9900EA4B70F4229A
:030DB20075812B1D
:0A0DB50012044DE5826003020DAD4B
:00000001FF
