:0600000002097A02006B08
:03000B0002006B85
:0300130002006B7D
:03001B0002006B75
:0300230002006B6D
:03002B0002006B65
:0300330002006B5D
:03003B0002006B55
:0300430002006B4D
:03004B0002006B45
:0300530002006B3D
:03005B0002006B35
:0300630002006B2D
:01006B003262
:0900800002006B0002006B00029B
:08008900006B0002006B000295
:08009100006B0002006B00028D
:08009900006B0002006B000285
:0800A100006B0002006B00027D
:0800A900006B0002006B000275
:0700B100006B0002006B0070
:0901000002006B0002006B00021A
:08010900006B0002006B000214
:08011100006B0002006B00020C
:08011900006B0002006B000204
:08012100006B0002006B0002FC
:08012900006B0002006B0002F4
:08013100006B0002006B0002EC
:08013900006B0002006B0002E4
:08014100006B0002006B0002DC
:08014900006B0002006B0002D4
:08015100006B0002006B0002CC
:08015900006B0002006B0002C4
:08016100006B0002006B0002BC
:08016900006B0002006B0002B4
:08017100006B0002006B0002AC
:07017900006B0002006B00A7
:03098000020988E1
:03099B00020983CB
:050983001201ED80FEF1
:0501800090E68BE4F0A5
:0901850090E6A0E0FA20E1F82266
:0E018E0090E6B8E0FABAC00890E6B9E07582D3
:02019C0000223F
:0E019E0090E6B8E0FABA403790E6B9E0FABA57
:0E01AC000C2B75B20B75800812018090E74095
:0C01BA00E0FA90E741E0F51290E742E027
:0A01C600F51390E743E0F5148A8278
:0901D00012073790E68BE080086D
:0401D9007582002209
:0401DD007582002205
:0401E1007582012200
:0801E5003000FD12047180F8E6
:0901ED00120202C2AF1208AD12A9
:0A01F60003DBC2EAD2AF1202EA02F4
:0202000001E516
:0E02020090E6007410F0758E0090E60174FB1B
:0E021000F0007580EF75B20B90E61074A0F050
:0E021E000090E61174E0F00090E61274A0F07B
:0E022C000090E613E4F00090E61474E0F00099
:0E023A0090E615E4F00090E6047480F0009069
:0E024800E6047402F00090E6047406F00090E4
:0D025600E604E4F00090E6187401F000905A
:0E026300E6187411F00090E61A7409F000908D
:0E027100E68AE4F00090E68DE4F00090E624CA
:0E027F007402F00090E625E4F00090E602E440
:0A028D00F090E603F090E609F0227D
:040297007A507BC35B
:06029B00001ABAFF011B6E
:0502A100EA4B70F6229B
:0CE0000012010002FFFFFF40FEFF0200C3
:06E00C0000010102060103
:0AE012000A060002FFFFFF400100B4
:0EE01C000902320003010080C8090400000060
:0EE02A00FFFFFF030904010001FFFFFF0407D1
:0EE038000502020002000904020001FFFFFFC2
:08E04600050705860200020037
:0CE04E0012010002FFFFFF40FEFF020075
:06E05A00000101020001BB
:0AE060000A060002FFFFFF40010066
:0EE06A000902120001010080C8090400000034
:04E07800FFFFFF03A4
:01E07C00079C
:02E07D008CE035
:02E07F0092E02D
:02E08100ACE011
:02E08300D0E0EB
:02E08500F2E0C7
:02E087000EE1A8
:02E0890028E18C
:06E08C0006030000090478
:0EE092001A0367006E00730073002D00730008
:0CE0A000640072002E0063006F006D0031
:0EE0AC00240347005000530020006400610070
:0EE0BA00740061002000730061006D007000B2
:06E0C8006C00650072000F
:02E0CE002E0022
:0EE0D000220343006F006D006D0061006E00C2
:0EE0DE00640020002600200053007400610042
:06E0EC00740075007300D2
:0EE0F2001C035400720061006E0073006D008C
:0EE10000690074002000500061007400680087
:0EE10E001A0352006500630065006900760088
:0CE11C00650020005000610074006800E5
:02E128000803EA
:06E12A0030002E00310060
:0802A6007800E84400600C79C7
:0C02AE0000901800E4F0A3D8FCD9FAD0AE
:0E02BA0083D082F6D8FDC082C08375820022F8
:0802C80090E6A0E04401F022E1
:0E02D000AA8274805AC423541FFB740F5A90E4
:0C02DE00E6834BF090E683E04420F02221
:0E02EA0090E680E0440AF09000FA1209699054
:0E02F800E65D74FFF090E65F74FFF05391EF47
:0803060090E680E054F7F022BC
:06099500E478FFF6D8FD36
:06097A007508017509007B
:0A030E0090E680E0FA30E719750A66
:0303180000750B62
:03031B00E0750C7E
:03031E0012750D48
:03032100E0750E76
:030324001C750F36
:03032700E075106E
:03032A006A7511E0
:02032D00E022CC
:04032F00750A4E7588
:030333000BE07567
:030336000C6075E3
:030339000DE0755F
:03033C000E6A75D1
:03033F000FE07557
:03034200101C7517
:0303450011E022A2
:090348005391EF75A100D20032BF
:0C035100C021C0E0C0F0C082C083C00228
:0E035D00C003C004C005C006C007C000C00138
:0E036B00C0D075D0005391EF75A10012030EA3
:0E037900D0D0D001D000D007D006D005D004DF
:0D038700D003D002D083D082D0F0D0E0D0DF
:02039400213214
:0C039600C021C0E0C0F0C082C083C002E3
:0E03A200C003C004C005C006C007C000C001F3
:0E03B000C0D075D0005391EF75A10012030E5E
:0E03BE00D0D0D001D000D007D006D005D0049A
:0D03CC00D003D002D083D082D0F0D0E0D09A
:0203D9002132CF
:0503DB0012030E751273
:0303E0004875134A
:0803E3000375820012080B757E
:0303EB0012517537
:0603EE00130375821012DA
:0403F400080B75126B
:0303F800967513E4
:0C03FB000375821412080B90E65C74314C
:02040700F022E1
:0D040900E582547FFA24F75004758200222A
:07041600BA01047582012206
:08041D00530201E4BA000104DE
:03042500F582223B
:0E042800AA82BA010C90E6A1E0FB7C008B8258
:030436008C832292
:0E043900BA810C90E6A2E0FB7C008B828C83E3
:010447002292
:0E04480053027FEA700C90E6A0E0FB7C008B74
:04045600828C8322EF
:0E045A0090E6A3E0FB7C00EAC313FA7D00EA03
:090468002BFBED3C8B82F5832295
:0C047100C20090E6B8E0FA530260BA0046
:03047D00028028D2
:05048000BA2002800D0E
:05048500BA4002800EE8
:05048A00BA60028003CE
:03048F0002072F32
:060492001202C802072F50
:0A04980012018EE582600302072FB7
:0604A2001202C802072F40
:0D04A80090E6B8E0FA530280BA80028003AB
:0304B5000206300C
:0B04B80090E6B9E0FABA00030205A9C3
:0504C300BA06028035BD
:0504C800BA08028008E3
:0504CD00BA0A028017CD
:0304D20002062AF5
:0C04D50090E740E508F090E68AE4F09023
:0804E100E68B7401F002072F05
:0C04E90090E740E509F090E68AE4F0900E
:0804F500E68B7401F002072FF1
:0A04FD0090E6BBE0FABA0102801796
:05050700BA0202803879
:05050C00BA0302805952
:05051100BA0602801B88
:05051600BA0702803C61
:03051B000205A333
:0A051E00AA0AAB0B90E6B3EBF07BEA
:090528000090E6B4EAF002072F8E
:0A053100AA0CAB0D90E6B3EBF07BD3
:09053B000090E6B4EAF002072F7B
:0A054400AA0EAB0F90E6B3EBF07BBC
:09054E000090E6B4EAF002072F68
:0A055700AA10AB1190E6B3EBF07BA5
:090561000090E6B4EAF002072F55
:0E056A0090E6BAE0FA90E07CE0FBC3EA9B402A
:07057800061202C802072F62
:0C057F0090E6BAE075F002A4247DF5823D
:0B058B0074E035F0F583E0FAA3E09087
:0D059600E6B3F07B0090E6B4EAF002072F18
:0605A3001202C802072F3E
:0D05A90090E6B8E0FA53021FBA0002800A83
:0505B600BA0102801BE8
:0505BB00BA0266802C6D
:0E05C00090E740E4F090E741F090E68AF0907A
:0805CE00E68B7402F002072F16
:0E05D60090E740E4F090E741F090E68AF09064
:0805E400E68B7402F002072F00
:0E05EC0090E6BCE0F582120409E582602590DD
:0E05FA00E6BCE0F582120428E0FA53020190FC
:0E060800E740EAF090E741E4F090E68AF090D7
:08061600E68B7402F002072FCD
:06061E001202C802072FC2
:060624001202C802072FBC
:06062A001202C802072FB6
:0C06300090E6B9E0FA24F4500302072C15
:07063C00EA2A2A900643732D
:0706430002072C02067902F8
:06064A0006F40206D502D1
:06065000072C02072C023A
:06065600072C02072C0234
:06065C00072C02066702F4
:05066200072C020670E8
:0906670090E6BAE0F50802072F45
:0906700090E6BAE0F50902072F3B
:0D06790090E6B8E0FA53021FBA00028005B7
:05068600BA0247800AE2
:0A068B0090E6BAE01202C802072F41
:0D06950090E6BAE0703090E6BCE0F582120D
:0D06A2000409E582602390E6BCE0F58212B9
:0E06AF000428AA82AB83E0FC5304FE8A828BEF
:0E06BD0083ECF090E6BCE0F5821202D080647F
:0506CB001202C8805F6F
:0506D0001202C8805A6F
:0E06D50090E6B8E0FA53021FBA004F90E6BA62
:0706E300E0FABA01028005F4
:0506EA00BA020280408D
:0506EF001202C8803B6F
:0E06F40090E6BAE0FA702C90E6BCE0F58212B7
:0D0702000409E582601A90E6BCE0F5821261
:0E070F000428AA82AB83E0FC4304018A828B9B
:05071D0083ECF0800DEB
:050722001202C880086E
:050727001202C880036E
:03072C001202C8EE
:08072F0090E6A0E04480F022F6
:07073700AA825380F77B0842
:0A073E005380FCEA30E70343800219
:0D074800EA2AFA438001DBEE5380FE7A08B6
:0B0755005380FCE51230E703438002F4
:05076000E5122512F571
:0B07650012438001DAEA5380FE7A089C
:0B0770005380FCE51330E703438002D8
:05077B00E5132513F554
:0B07800013438001DAEA5380FE7A0880
:0B078B005380FCE51430E703438002BC
:05079600E5142514F537
:0C079B0014438001DAEA5380FE758008E8
:0107A700222F
:0507A800AA82BA030063
:0707AD004005EA249C500105
:0107B4002222
:0907B500740F5AFBBB030280071C
:0707BE00740F5AFBBB0B4551
:0A07C500A2AF9201C2AFEA2400F5D2
:0C07CF0082E43400F5837402F07B0074B7
:0C07DB00012AFCE43BFDEC2400F582ED5B
:0A07E7003400F583E513FCF0740202
:0C07F1002AFAE43BFBEA2400F582EB341A
:0A07FD0000F583AA127B00EAF0A2C7
:030807000192AFAC
:01080A0022CB
:08080B00E582FA24835001226A
:06081300EA54036001221B
:0A081900A2AF9202C2AFEA2400F57C
:0C08230082E43401F5837402F07B007461
:0C082F00012AFCE43BFDEC2400F582ED06
:0A083B003401F583E513F074022A7E
:0B084500FAE43BFBEA2400F582EB34F0
:0808500001F583AA12EAF0A2EF
:040858000292AF2237
:08085C00E582FA24CB500122D1
:06086400EA5403600122CA
:0A086A00A2AF9203C2AFEA2480F5AA
:0C08740082E43400F5837402F07B007411
:0C088000012AFCE43BFDEC2480F582ED35
:0A088C003400F583E513F074022A2E
:0B089600FAE43BFBEA2480F582EB341F
:0808A10000F583AA12EAF0A29F
:0408A9000392AF22E5
:0808AD00C2E8C2EA75120075F1
:0608B500130175824312DD
:0408BB0007A8751203
:0308BF008075132E
:0C08C200007582531207A80090E650E475
:0E08CE00F00090E652E4F00090E654E4F000F2
:0E08DC0090E656E4F00090E65174FFF00090B4
:0E08EA00E65374FFF00090E65574FFF00090A6
:0E08F800E65774FFF00090E658E4F090E659E1
:0E09060074FFF090E65AE4F090E65B74FFF0A8
:0E09140090E65CE4F090E65D74FFF090E65E25
:0E092200E4F090E65F74FFF00090E660E4F011
:0D0930000090E66174FFF090E662E4F09044
:0E093D00E66374FFF090E665E4F090E66874FF
:0A094B000BF05391AFD2E8C2EA228C
:01095500227F
:02095600AA8273
:06095800120955DAFB2232
:03095E0090FB50BB
:08096100A3E582458370F92231
:04096900AA82AB8330
:08096D0012095E1ABAFF011B1A
:05097500EA4B70F422C2
:0309880075812155
:0A098B001202A6E582600302098350
:00000001FF
